:100000000C946E000C9496000C9496000C94960040
:100010000C9496000C9496000C9496000C94960008
:100020000C9496000C9496000C9496000C949600F8
:100030000C9496000C9496000C9496000C949600E8
:100040000C9430080C9496000C94FE070C94D8077E
:100050000C9496000C9496000C9496000C949600C8
:100060000C9496000C94960066026C027202780260
:100070007E0284028A02F703FE0305040C041304C3
:100080002A041A042A0421040000000800020100C6
:100090000003040700000000000000000000000052
:1000A000250028002B0000000000240027002A0063
:1000B000040404040404040402020202020203030E
:1000C0000303030301020408102040800102040816
:1000D00010200102040810207A08E10A11241FBE32
:1000E000CFEFD8E0DEBFCDBF22E0A4E3B1E001C096
:1000F0001D92A138B207E1F711E0A0E0B1E0EEE215
:10010000F0E202C005900D92A433B107D9F710E0D8
:10011000CDE6D0E004C02197FE010E94D60DCC367A
:10012000D107C9F70E94410A0C940A100C940000F0
:1001300090E0FC01EC53FF4F2491FC01E055FF4F90
:100140008491882399F090E0880F991FFC01EA556B
:10015000FF4FA591B491FC01E456FF4F8591949116
:100160008FB7F894EC91E22BEC938FBF0895CF9268
:10017000DF92EF92FF920F931F93CF93DF936C0167
:100180007A018B01C0E0D0E0CE15DF0589F0D801FF
:100190006D918D01D601ED91FC910190F081E02DE2
:1001A000C6010995892B11F47E0102C02196ECCF7E
:1001B000C701DF91CF911F910F91FF90EF90DF90DA
:1001C000CF900895089580E090E00895FC01538D4C
:1001D000448D252F30E0842F90E0821B930B541721
:1001E00010F0CF96089501970895FC01918D828DAE
:1001F000981761F0828DDF01A80FB11D5D968C917B
:10020000928D9F5F9F73928F90E008958FEF9FEF85
:100210000895FC01918D828D981731F0828DE80F41
:10022000F11D858D90E008958FEF9FEF0895FC01FB
:10023000918D228D892F90E0805C9F4F821B9109C8
:100240008F739927089582E591E00E94170121E0BC
:10025000892B09F420E0822F0895FC01848DDF01B1
:10026000A80FB11DA35ABF4F2C91848D90E0019629
:100270008F739927848FA689B7892C93A089B18918
:100280008C9180648C93938D848D981306C0028822
:10029000F389E02D80818F7D80830895EF92FF9216
:1002A0000F931F93CF93DF93EC0181E0888F9B8D99
:1002B0008C8D981305C0E889F989808185FD24C05B
:1002C000F62E0B8D10E00F5F1F4F0F731127E02EDE
:1002D0008C8DE8120CC00FB607FCFACFE889F989BB
:1002E000808185FFF5CFCE010E942D01F1CF8B8D4E
:1002F000FE01E80FF11DE35AFF4FF0820B8FEA89F0
:10030000FB898081806207C0EE89FF896083E8896C
:10031000F98980818064808381E090E0DF91CF91D2
:100320001F910F91FF90EF900895CF93DF93EC0111
:10033000888D8823C9F0EA89FB89808185FD05C005
:10034000A889B9898C9186FD0FC00FB607FCF5CF3F
:10035000808185FFF2CFA889B9898C9185FFEDCF87
:10036000CE010E942D01E7CFDF91CF91089590E05B
:10037000FC01E857FF4F3491FC01EC53FF4F2491EF
:10038000FC01E055FF4FE491EE2309F43BC0332319
:1003900039F1333091F038F43130A9F0323001F5D1
:1003A00084B58F7D12C0373091F03830A1F03430F1
:1003B000B9F4809180008F7D03C0809180008F7799
:1003C000809380000DC084B58F7784BD09C0809173
:1003D000B0008F7703C08091B0008F7D8093B00014
:1003E000F0E0EE0FFF1FE456FF4FA591B4918FB7D9
:1003F000F894EC91611103C020952E2301C02E2B9F
:100400002C938FBF0895CF93DF93FC012381222388
:1004100029F1EC0184810E9498008D810E9498004E
:100420008B81843011F0883029F48E810E949800ED
:100430008F8105C0833011F0863019F48E810E94BF
:1004400098008FA58F3F51F00E9498006EA581E023
:1004500068278FA5DF91CF910C94B701DF91CF91E1
:100460000895CF93DF93FC0123812223A1F0EC01B7
:100470000190F081E02D0480F581E02D60E0099588
:100480008FA58F3F41F00E9498006EA58FA5DF9148
:10049000CF910C94B701DF91CF910895CF93DF9363
:1004A0004770552766277727FA013197EC01A88115
:1004B000B981E730F10520F4EC5CFF4F0C94D60DC8
:1004C0001496ED91FC91159761E029C01496ED9179
:1004D000FC91159765E023C01496ED91FC9115975A
:1004E00064E01DC01496ED91FC91159766E017C06D
:1004F0001496ED91FC91159762E011C01496ED9160
:10050000FC9115976AE00BC01496ED91FC9115973C
:1005100068E005C01496ED91FC91159769E0DF91B4
:10052000CF910994CF93DF93EC01CB01BA0126E080
:1005300030E040E050E00E94B70D62307105810567
:10054000910559F18CF46115710581059105F1F062
:100550006130710581059105C1F5E881F98104805B
:10056000F581E02D65E02DC06430710581059105B0
:1005700011F1D4F0653071058105910531F5E881FF
:10058000F9810480F581E02D66E01BC0E881F981E6
:100590000480F581E02D64E014C0E881F9810480D5
:1005A000F581E02D61E00DC0E881F9810480F581DD
:1005B000E02D63E006C0E881F9810480F581E02D3B
:1005C00062E0CE01DF91CF910994DF91CF91089540
:1005D0004370552766277727DC01ED91FC91048055
:1005E000F581E02D423051056105710571F0433010
:1005F00051056105710559F04130510561057105DD
:1006000011F065E005C066E003C06AE001C069E082
:100610000994CF93DF93EC01CB01BA0123E030E0E2
:1006200040E050E00E94B70D6130710581059105F1
:1006300081F0623071058105910591F0672B682B7F
:10064000692BC1F4E881F9810480F581E02D64E033
:100650000DC0E881F9810480F581E02D61E006C0DC
:10066000E881F9810480F581E02D62E0CE01DF911F
:10067000CF910994DF91CF91089543705527662754
:100680007727DC01ED91FC910480F581E02D42306B
:1006900051056105710571F0433051056105710522
:1006A00059F0413051056105710511F062E005C056
:1006B00063E003C061E001C060E00994CF93DF9381
:1006C000EC01E881F9810480F581E02D8A818111B6
:1006D00002C060E001C062E0CE010995E881F981C5
:1006E0000480F581E02D8A81811102C061E001C0A2
:1006F00063E0CE0109958CA59DA58230910538F067
:10070000880F991F880F991F05970197F1F7E881C6
:10071000F9810480F581E02D8A81811102C060E0B9
:1007200001C062E0CE01DF91CF910994CF93DF93B6
:10073000EC0120E030E0A9016C897D898E899F89D8
:100740000E94570D18161CF4E8A9F9A902C0EAA9DD
:10075000FBA9DF91CF910994CF92DF92EF92FF92A4
:100760000F931F93CF93DF93FC012381243041F03B
:10077000283031F0233031F0263021F012E003C070
:1007800014E001C013E0EC012896E12CF12CC62EF8
:10079000D12C01E0C6010E2C02C0959587950A94D4
:1007A000E2F7688180FD6027FE01349780810E9416
:1007B000B701FFEFEF1AFF0A2196E11658F3DF9118
:1007C000CF911F910F91FF90EF90DF90CF90089500
:1007D0000F931F93DC011396EC910E2F10E009305C
:1007E0001105C0F5F801E55CFF4F0C94D60DDC0156
:1007F000ED91FC910084F185E02D29C0DC01ED91A3
:10080000FC910284F385E02D22C0DC01ED91FC9186
:100810000484F585E02D1BC0DC01ED91FC9106847C
:10082000F785E02D14C0DC01ED91FC910088F18981
:10083000E02D0DC0DC01ED91FC910288F389E02DE3
:1008400006C0DC01ED91FC910488F589E02D1F9133
:100850000F9109941F910F9108952F923F924F92FB
:100860005F926F927F928F929F92AF92BF92CF9240
:10087000DF92EF92FF920F931F93CF93DF9300D0FD
:1008800000D0CDB7DEB71C01FC01C088D188E2885A
:10089000F38884859585A685B785C81AD90AEA0A9A
:1008A000FB0A64897589868997899B01AC010E943E
:1008B0004D0B4B015C01F101648D758D868D978D1B
:1008C0009B01AC010E94430C9B01AC01C501B4012A
:1008D0000E94AF0C0E94210DC114D104E104F10467
:1008E000A1F462307105810591050CF07CC0F10125
:1008F00014A215A216A217A2148A158A168A178A9C
:1009000014AA15AA16AA17AAFFC0F10104A915A9CD
:1009100026A937A91C141D041E041F0404F5101673
:100920001106120613064CF46C157D058E059F0505
:100930005CF52281211157C027C001151105210541
:10094000310509F450C06C157D058E059F050CF02E
:100950004AC0F1018281882309F445C039C01016CC
:10096000110612061306FCF40027112798010C1932
:100970001D092E093F09601771078207930724F4A8
:10098000F1012281222379F19B01AC01882799276B
:10099000DC01821B930BA40BB50BF10184AB95AB6F
:1009A000A6ABB7AB20C00115110521053105D9F063
:1009B0008824992454018C189D08AE08BF08681536
:1009C00079058A059B057CF4F101828181110BC0B8
:1009D00030952095109501951F4F2F4F3F4F04AB39
:1009E00015AB26AB37ABF10184A895A8A6A8B7A88C
:1009F00081149104A104B10491F480AD91ADA2AD34
:100A0000B3AD84AF95AFA6AFB7AF81E01C141D04A2
:100A10001E041F040CF080E0F101828341C0F1014B
:100A2000C4ACD5ACE6ACF7ACA7019601C701B601E2
:100A30000E94430C2B013C01C501B4010E94EE0A47
:100A400020E030E040E850E40E944D0B20E030E030
:100A500040E85FE30E94430C9B01AC01C301B2017B
:100A60000E94AF0C9B01AC01C701B6010E94420C71
:100A70007B018C01F101E05CFF4F60807180C280DE
:100A8000D3809301A6010E94570D181614F073012C
:100A90008601A701B801F10144AF55AF66AF77AF4A
:100AA000FFEF8F1A9F0AAF0ABF0AF10184AA95AA25
:100AB000A6AAB7AA24AD35AD46AD57ADCA01B90156
:100AC00029833A834B835C830E94280DF10164A340
:100AD00075A386A397A329813A814B815C8160E04D
:100AE00074E284E799E40E94AF0CF101648B758B8A
:100AF000868B978B2281211107C0DC01CB01B05876
:100B0000848B958BA68BB78B0F900F900F900F90C7
:100B1000DF91CF911F910F91FF90EF90DF90CF90D9
:100B2000BF90AF909F908F907F906F905F904F900D
:100B30003F902F900895CF92DF92EF92FF92CF9344
:100B4000DF93EC0120E030E040E854E4688D798DDB
:100B50008A8D9B8D0E94E70A882309F443C080E0B8
:100B600090E0A0E8B4E4888F998FAA8FBB8F80E0D3
:100B700094E2A4E7B4E4FE01E05CFF4F808391833C
:100B8000A283B3838CA99DA9AEA9BFA91816190683
:100B90001A061B063CF56C897D898E899F899B010D
:100BA000AC010E944D0B6B017C016C8D7D8D8E8D97
:100BB0009F8D9B01AC010E94430C9B01AC01C701BE
:100BC000B6010E94AF0C0E94210D6CAB7DAB8EABC9
:100BD0009FABCE01DF91CF91FF90EF90DF90CF9050
:100BE0000C942D04DF91CF91FF90EF90DF90CF9088
:100BF0000895CF92DF92EF92FF92CF93DF93EC01B3
:100C00008CA19DA1AEA1BFA1892B8A2B8B2B09F4AE
:100C100059C03FB7F8948091490190914A01A09141
:100C20004B01B0914C0126B5A89B05C02F3F19F090
:100C30000196A11DB11D3FBFCC24D82EE92EFA2E5E
:100C4000C20ED11CE11CF11C42E0CC0CDD1CEE1CE0
:100C5000FF1C4A95D1F788A599A5AAA5BBA5B70100
:100C6000A601481B590B6A0B7B0B8CA19DA1AEA161
:100C7000BFA1481759076A077B0720F12A818C8595
:100C80009D85AE85BF85222321F00196A11DB11D52
:100C900003C00197A109B1098C879D87AE87BF87E3
:100CA000E881F9814C855D856E857F850680F781B9
:100CB000E02DCE010995C8A6D9A6EAA6FBA6CE01CD
:100CC0000E942D0420E030E0A9016C897D898E8985
:100CD0009F890E94E70A811110C081E0C888D988E5
:100CE000EA88FB884C855D856E857F85C416D506B0
:100CF000E606F70619F480E001C081E0DF91CF91AC
:100D0000FF90EF90DF90CF9008950F931F93CF93B4
:100D1000DF93C8EED3E014E60AE082E591E00E949A
:100D20001701892B09F4B4C082E591E00E94F50017
:100D300080934801082E000C990BC0978A309105CA
:100D400008F0A1C02091460130914701F901EE0F52
:100D5000FF1FEC5CFE4F91838083C9010196909345
:100D60004701809346010897C1F6109247011092FF
:100D7000460180913401909135018C9F90018D9FA7
:100D8000300D9C9F300D1124409136015091370158
:100D9000149FC001159F900D1124820F931F409145
:100DA000380150913901049F9001059F300D1124A5
:100DB000820F931F20913A0130913B01820F931FC4
:100DC000092E000CAA0BBB0B4091490250914A021C
:100DD00060914B0270914C02481759076A077B07D4
:100DE00061F08093490290934A02A0934B02B09322
:100DF0004C0289E392E00E942D0480913C01909185
:100E00003D018C9F90018D9F300D9C9F300D1124D2
:100E100040913E0150913F01149FC001159F900DDC
:100E20001124820F931F4091400150914101049F72
:100E30009001059F300D1124820F931F20914201D4
:100E400030914301820F931F092E000CAA0BBB0B9C
:100E500040910502509106026091070270910802CC
:100E6000481759076A077B0709F457CF8093050293
:100E700090930602A0930702B093080285EF91E0D9
:100E80000E942D044ACF109247011092460145CF8F
:100E9000DF91CF911F910F9108950E94230181113D
:100EA0000C94850608950E94F50F4F925F926F9201
:100EB0007F928F929F92AF92BF92CF92DF92EF92EA
:100EC000FF92CF93DF93EC016A017B0120E030E0D9
:100ED000A901C701B6010E94E70A87FF04C0F7FA1B
:100EE000F094F7F8F0948C8C9D8CAE8CBF8CA7019D
:100EF0009601C501B4010E94E70A882309F449C09C
:100F00006CA97DA98EA99FA90E94EE0A2B013C0124
:100F1000A7019601C501B4010E94AF0C9B01AC0171
:100F2000C301B2010E944D0B0E94210D6CAB7DAB41
:100F30008EAB9FABA701960160E070E080E090E48B
:100F40000E94AF0C0E94620D26E53EE04DE25FE399
:100F50000E944D0B20E034E244E759E40E944D0B1F
:100F600068AF79AF8AAF9BAFCC8EDD8EEE8EFF8EF1
:100F7000CE01DF91CF91FF90EF90DF90CF90BF90A7
:100F8000AF909F908F907F906F905F904F900C9458
:100F90002D04DF91CF91FF90EF90DF90CF90BF9025
:100FA000AF909F908F907F906F905F904F9008953B
:100FB0001F920F920FB60F9211242F933F934F93CE
:100FC0005F936F937F938F939F93AF93BF93EF93B1
:100FD000FF9382E591E00E942D01FF91EF91BF9177
:100FE000AF919F918F917F916F915F914F913F91C1
:100FF0002F910F900FBE0F901F9018951F920F9278
:101000000FB60F9211242F938F939F93EF93FF931B
:10101000E0916201F09163018081E0916801F091BB
:10102000690182FD12C0908180916B018F5F8F7387
:1010300020916C01821751F0E0916B01F0E0EE5AC3
:10104000FE4F958F80936B0101C08081FF91EF91DE
:101050009F918F912F910F900FBE0F901F90189519
:101060001F920F920FB60F9211242F933F938F93DD
:101070009F93AF93BF9380914E0190914F01A091A8
:101080005001B091510130914D0123E0230F2D37D4
:1010900020F40196A11DB11D05C026E8230F02967C
:1010A000A11DB11D20934D0180934E0190934F01DE
:1010B000A0935001B09351018091490190914A0150
:1010C000A0914B01B0914C010196A11DB11D8093DF
:1010D000490190934A01A0934B01B0934C01BF91F9
:1010E000AF919F918F913F912F910F900FBE0F90D5
:1010F0001F901895AF92BF92CF92DF92EF92FF921E
:101100000F931F93CF93DF931092550110925401C8
:1011100088EE93E0A0E0B0E08093560190935701F1
:10112000A0935801B09359018AE091E09093530144
:101130008093520185EC90E090935F0180935E0173
:1011400084EC90E0909361018093600180EC90E0EA
:10115000909363018093620181EC90E0909365012C
:101160008093640182EC90E0909367018093660124
:1011700086EC90E0909369018093680110926B0176
:1011800010926C0110926D0110926E018CE1A82EEC
:1011900081E0B82EB0923A02A0923902C8E0C09322
:1011A0003C021092450210924602109247021092A1
:1011B00048021092490210924A0210924B02109279
:1011C0004C0210924D0210924E0210924F02109259
:1011D0005002C12CD12C90E8E92E9FE3F92EC09249
:1011E0005102D0925202E0925302F09254021092B5
:1011F0005502109256021092570210925802C09255
:101200005902D0925A02E0925B02F0925C02109274
:101210005D0210925E0210925F021092600201E085
:1012200010E01093660200936502DFEFD09368022E
:101230001092610210926202109263021092640294
:1012400083E080933D0285E080933E0284E08093BA
:101250003F0286E08093400210926D0210926E026F
:1012600010926F021092700210927102109272022C
:10127000109273021092740210927502109276020C
:101280001092770210927802C0927902D0927A027C
:10129000E0927B02F0927C0210923B02109241029B
:1012A00010924202109243021092440289E392E0AB
:1012B0000E940302B701A60189E392E00E9455074C
:1012C000B092F601A092F501C093F80110920102CC
:1012D0001092020210920302109204021092050270
:1012E0001092060210920702109208021092090250
:1012F00010920A0210920B0210920C02C0920D0280
:10130000D0920E02E0920F02F0921002109211029F
:10131000109212021092130210921402C09215023F
:10132000D0921602E0921702F0921802109219025F
:1013300010921A0210921B0210921C0210932202A9
:1013400000932102D093240210921D0210921E02DB
:1013500010921F0210922002C093F9018AE080933C
:10136000FA0189E08093FB018BE08093FC011092ED
:10137000290210922A0210922B0210922C02109233
:101380002D0210922E0210922F0210923002109213
:101390003102109232021092330210923402C09243
:1013A0003502D0923602E0923702F0923802109263
:1013B000F7011092FD011092FE011092FF011092B0
:1013C000000285EF91E00E940302B701A60185EFBC
:1013D00091E00E9455071092F0011092EF011092D7
:1013E000F2011092F1011092F4011092F30161E008
:1013F00070E080E090E00E942B0F009789F09093BE
:10140000F0018093EF011092F2011092F10120910E
:10141000F3013091F401232B11F5FC0110821FC060
:101420008091EF019091F001009711F00E94930ECE
:101430001092F0011092EF011092F4011092F3015A
:101440001092F2011092F101DF91CF911F910F9153
:10145000FF90EF90DF90CF90BF90AF9008951092E3
:10146000F4011092F30162E371E0DF91CF911F91DB
:101470000F91FF90EF90DF90CF90BF90AF900C94C2
:101480000310789484B5826084BD84B5816084BD86
:1014900085B5826085BD85B5816085BD80916E0012
:1014A000816080936E001092810080918100826043
:1014B0008093810080918100816080938100809180
:1014C00080008160809380008091B100846080936F
:1014D000B1008091B00081608093B00080917A006B
:1014E000846080937A0080917A00826080937A0091
:1014F00080917A00816080937A0080917A00806880
:1015000080937A001092C100E0916201F091630132
:1015100082E08083E0916201F09163011082E091AA
:101520005E01F0915F011082E0916001F091610134
:1015300080E1808310926A01E0916601F091670179
:1015400086E08083E0916401F09165018081806193
:101550008083E0916401F0916501808188608083DF
:10156000E0916401F0916501808180688083E09161
:101570006401F091650180818F7D808389E392E031
:101580000E949B0540E050E060E874E489E392E04B
:101590000E94550785EF91E00E949B0540E050E0D6
:1015A00060E874E485EF91E00E94550789E392E0DA
:1015B0000E94F90585EF91E00E94F9050E944D0710
:1015C000F5CF8091EF019091F0010C94930E0E9461
:1015D000290B08F481E00895E89409C097FB3EF4D4
:1015E00090958095709561957F4F8F4F9F4F992370
:1015F000A9F0F92F96E9BB279395F69587957795EE
:101600006795B795F111F8CFFAF4BB0F11F460FFAD
:101610001BC06F5F7F4F8F4F9F4F16C0882311F005
:1016200096E911C0772321F09EE8872F762F05C019
:10163000662371F096E8862F70E060E02AF09A95B4
:10164000660F771F881FDAF7880F9695879597F9A9
:101650000895990F0008550FAA0BE0E8FEEF161643
:101660001706E807F907C0F012161306E407F50796
:1016700098F0621B730B840B950B39F40A2661F00A
:10168000232B242B252B21F408950A2609F4A140AD
:10169000A6958FEF811D811D08950E94600B0C940B
:1016A000D10B0E94C30B38F00E94CA0B20F0952387
:1016B00011F00C94BA0B0C94C00B11240C94050C73
:1016C0000E94E20B70F3959FC1F3950F50E0551FF8
:1016D000629FF001729FBB27F00DB11D639FAA2787
:1016E000F00DB11DAA1F649F6627B00DA11D661FD6
:1016F000829F2227B00DA11D621F739FB00DA11DF7
:10170000621F839FA00D611D221F749F3327A00DB0
:10171000611D231F849F600D211D822F762F6A2F4C
:1017200011249F5750409AF0F1F088234AF0EE0FB1
:10173000FF1FBB1F661F771F881F91505040A9F7DE
:101740009E3F510580F00C94BA0B0C94050C5F3F42
:10175000E4F3983ED4F3869577956795B795F7951A
:10176000E7959F5FC1F7FE2B880F911D9695879592
:1017700097F9089597F99F6780E870E060E0089511
:101780009FEF80EC089500240A9416161706180699
:101790000906089500240A94121613061406050675
:1017A0000895092E0394000C11F4882352F0BB0F06
:1017B00040F4BF2B11F460FF04C06F5F7F4F8F4F69
:1017C0009F4F089557FD9058440F551F59F05F3FA4
:1017D00071F04795880F97FB991F61F09F3F79F053
:1017E00087950895121613061406551FF2CF4695D5
:1017F000F1DF08C0161617061806991FF1CF869557
:101800007105610508940895E894BB27662777273A
:10181000CB0197F908952F923F924F925F926F926A
:101820007F928F929F92AF92BF92CF92DF92EF9270
:10183000FF920F931F93CF93DF93CDB7DEB7CA1BF1
:10184000DB0B0FB6F894DEBF0FBECDBF09942A881C
:10185000398848885F846E847D848C849B84AA84C4
:10186000B984C884DF80EE80FD800C811B81AA8151
:10187000B981CE0FD11D0FB6F894DEBF0FBECDBF1C
:10188000ED0108955058BB27AA270E945A0C0C94CA
:10189000D10B0E94C30B38F00E94CA0B20F039F420
:1018A0009F3F19F426F40C94C00B0EF4E095E7FB6F
:1018B0000C94BA0BE92F0E94E20B58F3BA17620797
:1018C00073078407950720F079F4A6F50C94040CAF
:1018D0000EF4E0950B2EBA2FA02D0B01B90190014B
:1018E0000C01CA01A0011124FF27591B99F0593F8F
:1018F00050F4503E68F11A16F040A22F232F342FD7
:101900004427585FF3CF469537952795A795F04024
:101910005395C9F77EF41F16BA0B620B730B840B39
:10192000BAF09150A1F0FF0FBB1F661F771F881FF1
:10193000C2F70EC0BA0F621F731F841F48F4879549
:1019400077956795B795F7959E3F08F0B0CF93953B
:10195000880F08F09927EE0F9795879508950E94B4
:10196000C30C0C94D10B0E94CA0B58F00E94C30BFD
:1019700040F029F45F3F29F00C94BA0B51110C94FC
:10198000050C0C94C00B0E94E20B68F39923B1F391
:10199000552391F3951B550BBB27AA276217730795
:1019A000840738F09F5F5F4F220F331F441FAA1F29
:1019B000A9F335D00E2E3AF0E0E832D091505040E5
:1019C000E695001CCAF72BD0FE2F29D0660F771F93
:1019D000881FBB1F261737074807AB07B0E809F079
:1019E000BB0B802DBF01FF2793585F4F3AF09E3FFE
:1019F000510578F00C94BA0B0C94050C5F3FE4F39E
:101A0000983ED4F3869577956795B795F7959F5F40
:101A1000C9F7880F911D9695879597F90895E1E08C
:101A2000660F771F881FBB1F621773078407BA07EB
:101A300020F0621B730B840BBA0BEE1F88F7E09546
:101A400008950E94280D6894B1110C94050C089516
:101A50000E94EA0B88F09F5798F0B92F9927B75149
:101A6000B0F0E1F0660F771F881F991F1AF0BA9542
:101A7000C9F714C0B13091F00E94040CB1E0089590
:101A80000C94040C672F782F8827B85F39F0B93F82
:101A9000CCF3869577956795B395D9F73EF49095F5
:101AA0008095709561957F4F8F4F9F4F08950E944D
:101AB000290B08F48FEF089519F416F40C94C00B59
:101AC0000C94A20D0E94EA0BB8F39923C9F3B6F364
:101AD0009F57550B87FF0E94B00D0024A0E640EAF7
:101AE000900180585695979528F4805C660F771F73
:101AF000881F20F026173707480730F4621B730B46
:101B0000840B202931294A2BA69517940794202568
:101B100031254A2758F7660F771F881F20F02617B0
:101B20003707480730F4620B730B840B200D311D0F
:101B3000411DA09581F7B901842F9158880F969582
:101B4000879508959F3F31F0915020F487957795C0
:101B50006795B795880F911D9695879597F9089584
:101B600091505040660F771F881FD2F70895052EB9
:101B700097FB1EF400940E94CE0D57FD07D00E94E3
:101B8000DC0D07FC03D04EF40C94CE0D509540951F
:101B9000309521953F4F4F4F5F4F08959095809519
:101BA000709561957F4F8F4F9F4F0895EE0FFF1FE8
:101BB0000590F491E02D0994A1E21A2EAA1BBB1BFB
:101BC000FD010DC0AA1FBB1FEE1FFF1FA217B30709
:101BD000E407F50720F0A21BB30BE40BF50B661F1F
:101BE000771F881F991F1A9469F7609570958095E3
:101BF00090959B01AC01BD01CF010895CF93DF9378
:101C00008230910510F482E090E0E0917F02F09143
:101C1000800220E030E0C0E0D0E0309711F1408158
:101C2000518148175907C0F04817590761F482815C
:101C30009381209719F09B838A832BC09093800215
:101C400080937F0226C02115310519F042175307F2
:101C500018F49A01BE01DF01EF010280F381E02D4B
:101C6000DCCF2115310509F1281B390B2430310552
:101C700090F412968D919C9113976115710521F046
:101C8000FB019383828304C09093800280937F0240
:101C9000FD01329644C0FD01E20FF31F8193919341
:101CA000225031092D933C933AC020917D0230910E
:101CB0007E02232B41F420910201309103013093E5
:101CC0007E0220937D0220910001309101012115B7
:101CD000310541F42DB73EB7409104015091050103
:101CE000241B350BE0917D02F0917E02E217F30791
:101CF000A0F42E1B3F0B2817390778F0AC014E5F7C
:101D00005F4F2417350748F04E0F5F1F50937E0238
:101D100040937D028193919302C0E0E0F0E0CF0117
:101D2000DF91CF9108950F931F93CF93DF93009787
:101D300009F48CC0FC0132971382128200917F0259
:101D4000109180020115110581F420813181820FEB
:101D5000931F20917D0230917E022817390779F573
:101D6000F0937E02E0937D0271C0D80140E050E024
:101D7000AE17BF0750F412962D913C911397AD0109
:101D80002115310509F1D901F3CF9D01DA01338322
:101D9000228360817181860F971F8217930769F4F0
:101DA000EC0128813981260F371F2E5F3F4F318389
:101DB00020838A819B8193838283452B29F4F0932E
:101DC0008002E0937F0242C01396FC93EE93129739
:101DD000ED01499159919E01240F351FE217F30738
:101DE00071F480819181840F951F029611969C93C6
:101DF0008E938281938113969C938E931297E0E049
:101E0000F0E0D80112968D919C911397009719F0EC
:101E1000F8018C01F6CF8D919C9198012E5F3F4F78
:101E2000820F931F20917D0230917E02281739077F
:101E300069F4309729F41092800210927F0202C058
:101E40001382128210937E0200937D02DF91CF9164
:101E50001F910F910895A0E0B0E0E1E3FFE00C9442
:101E60000F0CEC01009721F4CB010E94FE0DB8C0CD
:101E7000FC01E60FF71F9C0122503109E217F3071E
:101E800008F4ACC0D9010D911C91119706171707E2
:101E9000B0F00530110508F49FC0C80104978617FB
:101EA000970708F499C002501109061B170B0193FC
:101EB00011936D937C93CF010E94930E8DC05B01B3
:101EC000A01AB10A4C01800E911EA0917F02B09120
:101ED000800240E050E0E12CF12C109709F44AC058
:101EE000A815B905D1F56D907C901197630182E03A
:101EF000C80ED11CCA14DB0480F1A3014A195B0986
:101F00006A0182E0C80ED11C1296BC9012971396FB
:101F1000AC91B5E0CB16D10440F0B282A3835183DB
:101F20004083D9016D937C930AC00E5F1F4FC3019C
:101F3000800F911FF90191838083EB2DFA2FE1141B
:101F4000F10431F0D7011396FC93EE93129744C03D
:101F5000F0938002E0937F023FC08D919C91119796
:101F60004817590708F4AC017D0112960D90BC91F9
:101F7000A02DB3CF80917D0290917E0288159905A6
:101F8000E1F446175707C8F48091000190910101D0
:101F9000009741F48DB79EB740910401509105011F
:101FA000841B950BE817F907C8F4F0937E02E093C1
:101FB0007D02F901718360830FC0CB010E94FE0D89
:101FC0007C01009759F0A801BE010E94FA0FCE01D2
:101FD0000E94930EC70104C0CE0102C080E090E0D1
:101FE000CDB7DEB7EEE00C942B0C81E090E0F894D6
:101FF0000C940A10FB01DC0102C001900D924150CB
:102000005040D8F70895FB01DC0101900D920020AB
:10201000E1F7089510E0CDE6D0E004C0FE010E9493
:0E202000D60D2196CE36D107C9F7F894FFCF22
:10202E00000081028000000000004E01B700E600B3
:10203E0095011701F50009010000000031020302AD
:10204E00AC03E80396035E033D030903E802920224
:04205E004E0200002E
:00000001FF
