:100000000C946E000C9496000C9496000C94960040
:100010000C9496000C9496000C9496000C94960008
:100020000C9496000C9496000C9496000C949600F8
:100030000C9496000C9496000C9496000C949600E8
:100040000C9456080C9496000C9424080C94FE070B
:100050000C9496000C9496000C9496000C949600C8
:100060000C9496000C94960066026C027202780260
:100070007E0284028A02F703FE0305040C041304C3
:100080002A041A042A0421040000000800020100C6
:100090000003040700000000000000000000000052
:1000A000250028002B0000000000240027002A0063
:1000B000040404040404040402020202020203030E
:1000C0000303030301020408102040800102040816
:1000D0001020010204081020A008070B11241FBEE5
:1000E000CFEFD8E0DEBFCDBF22E0A4E3B1E001C096
:1000F0001D92A738B207E1F711E0A0E0B1E0EAE70E
:10010000F0E202C005900D92A433B107D9F710E0D8
:10011000CDE6D0E004C02197FE010E94FC0DCC3654
:10012000D107C9F70E94670A0C9430100C940000A4
:1001300090E0FC01EC53FF4F2491FC01E055FF4F90
:100140008491882399F090E0880F991FFC01EA556B
:10015000FF4FA591B491FC01E456FF4F8591949116
:100160008FB7F894EC91E22BEC938FBF0895CF9268
:10017000DF92EF92FF920F931F93CF93DF936C0167
:100180007A018B01C0E0D0E0CE15DF0589F0D801FF
:100190006D918D01D601ED91FC910190F081E02DE2
:1001A000C6010995892B11F47E0102C02196ECCF7E
:1001B000C701DF91CF911F910F91FF90EF90DF90DA
:1001C000CF900895089580E090E00895FC01538D4C
:1001D000448D252F30E0842F90E0821B930B541721
:1001E00010F0CF96089501970895FC01918D828DAE
:1001F000981761F0828DDF01A80FB11D5D968C917B
:10020000928D9F5F9F73928F90E008958FEF9FEF85
:100210000895FC01918D828D981731F0828DE80F41
:10022000F11D858D90E008958FEF9FEF0895FC01FB
:10023000918D228D892F90E0805C9F4F821B9109C8
:100240008F739927089588E591E00E94170121E0B6
:10025000892B09F420E0822F0895FC01848DDF01B1
:10026000A80FB11DA35ABF4F2C91848D90E0019629
:100270008F739927848FA689B7892C93A089B18918
:100280008C9180648C93938D848D981306C0028822
:10029000F389E02D80818F7D80830895EF92FF9216
:1002A0000F931F93CF93DF93EC0181E0888F9B8D99
:1002B0008C8D981305C0E889F989808185FD24C05B
:1002C000F62E0B8D10E00F5F1F4F0F731127E02EDE
:1002D0008C8DE8120CC00FB607FCFACFE889F989BB
:1002E000808185FFF5CFCE010E942D01F1CF8B8D4E
:1002F000FE01E80FF11DE35AFF4FF0820B8FEA89F0
:10030000FB898081806207C0EE89FF896083E8896C
:10031000F98980818064808381E090E0DF91CF91D2
:100320001F910F91FF90EF900895CF93DF93EC0111
:10033000888D8823C9F0EA89FB89808185FD05C005
:10034000A889B9898C9186FD0FC00FB607FCF5CF3F
:10035000808185FFF2CFA889B9898C9185FFEDCF87
:10036000CE010E942D01E7CFDF91CF91089590E05B
:10037000FC01E857FF4F3491FC01EC53FF4F2491EF
:10038000FC01E055FF4FE491EE2309F43BC0332319
:1003900039F1333091F038F43130A9F0323001F5D1
:1003A00084B58F7D12C0373091F03830A1F03430F1
:1003B000B9F4809180008F7D03C0809180008F7799
:1003C000809380000DC084B58F7784BD09C0809173
:1003D000B0008F7703C08091B0008F7D8093B00014
:1003E000F0E0EE0FFF1FE456FF4FA591B4918FB7D9
:1003F000F894EC91611103C020952E2301C02E2B9F
:100400002C938FBF0895CF93DF93FC012381222388
:1004100029F1EC0184810E9498008D810E9498004E
:100420008B81843011F0883029F48E810E949800ED
:100430008F8105C0833011F0863019F48E810E94BF
:1004400098008FA58F3F51F00E9498006EA581E023
:1004500068278FA5DF91CF910C94B701DF91CF91E1
:100460000895CF93DF93FC0123812223A1F0EC01B7
:100470000190F081E02D0480F581E02D60E0099588
:100480008FA58F3F41F00E9498006EA58FA5DF9148
:10049000CF910C94B701DF91CF910895CF93DF9363
:1004A0004770552766277727FA013197EC01A88115
:1004B000B981E730F10520F4EC5CFF4F0C94FC0DA2
:1004C0001496ED91FC91159761E029C01496ED9179
:1004D000FC91159765E023C01496ED91FC9115975A
:1004E00064E01DC01496ED91FC91159766E017C06D
:1004F0001496ED91FC91159762E011C01496ED9160
:10050000FC9115976AE00BC01496ED91FC9115973C
:1005100068E005C01496ED91FC91159769E0DF91B4
:10052000CF910994CF93DF93EC01CB01BA0126E080
:1005300030E040E050E00E94DD0D62307105810541
:10054000910559F18CF46115710581059105F1F062
:100550006130710581059105C1F5E881F98104805B
:10056000F581E02D65E02DC06430710581059105B0
:1005700011F1D4F0653071058105910531F5E881FF
:10058000F9810480F581E02D66E01BC0E881F981E6
:100590000480F581E02D64E014C0E881F9810480D5
:1005A000F581E02D61E00DC0E881F9810480F581DD
:1005B000E02D63E006C0E881F9810480F581E02D3B
:1005C00062E0CE01DF91CF910994DF91CF91089540
:1005D0004370552766277727DC01ED91FC91048055
:1005E000F581E02D423051056105710571F0433010
:1005F00051056105710559F04130510561057105DD
:1006000011F065E005C066E003C06AE001C069E082
:100610000994CF93DF93EC01CB01BA0123E030E0E2
:1006200040E050E00E94DD0D6130710581059105CB
:1006300081F0623071058105910591F0672B682B7F
:10064000692BC1F4E881F9810480F581E02D64E033
:100650000DC0E881F9810480F581E02D61E006C0DC
:10066000E881F9810480F581E02D62E0CE01DF911F
:10067000CF910994DF91CF91089543705527662754
:100680007727DC01ED91FC910480F581E02D42306B
:1006900051056105710571F0433051056105710522
:1006A00059F0413051056105710511F062E005C056
:1006B00063E003C061E001C060E00994CF93DF9381
:1006C000EC01E881F9810480F581E02D8A818111B6
:1006D00002C060E001C062E0CE010995E881F981C5
:1006E0000480F581E02D8A81811102C061E001C0A2
:1006F00063E0CE0109958CA59DA58230910538F067
:10070000880F991F880F991F05970197F1F7E881C6
:10071000F9810480F581E02D8A81811102C060E0B9
:1007200001C062E0CE01DF91CF910994CF93DF93B6
:10073000EC0120E030E0A9016C897D898E899F89D8
:100740000E947D0D18161CF4E8A9F9A902C0EAA9B7
:10075000FBA9DF91CF910994CF92DF92EF92FF92A4
:100760000F931F93CF93DF93FC012381243041F03B
:10077000283031F0233031F0263021F012E003C070
:1007800014E001C013E0EC012896E12CF12CC62EF8
:10079000D12C01E0C6010E2C02C0959587950A94D4
:1007A000E2F7688180FD6027FE01349780810E9416
:1007B000B701FFEFEF1AFF0A2196E11658F3DF9118
:1007C000CF911F910F91FF90EF90DF90CF90089500
:1007D0000F931F93DC011396EC910E2F10E009305C
:1007E0001105C0F5F801E55CFF4F0C94FC0DDC0130
:1007F000ED91FC910084F185E02D29C0DC01ED91A3
:10080000FC910284F385E02D22C0DC01ED91FC9186
:100810000484F585E02D1BC0DC01ED91FC9106847C
:10082000F785E02D14C0DC01ED91FC910088F18981
:10083000E02D0DC0DC01ED91FC910288F389E02DE3
:1008400006C0DC01ED91FC910488F589E02D1F9133
:100850000F9109941F910F9108952F923F924F92FB
:100860005F926F927F928F929F92AF92BF92CF9240
:10087000DF92EF92FF920F931F93CF93DF9300D0FD
:1008800000D0CDB7DEB71C01FC01C088D188E2885A
:10089000F38884859585A685B785C81AD90AEA0A9A
:1008A000FB0A64897589868997899B01AC010E943E
:1008B000730B4B015C01F101648D758D868D978DF5
:1008C0009B01AC010E94690C9B01AC01C501B40104
:1008D0000E94D50C0E94470DC114D104E104F1041B
:1008E000A1F462307105810591050CF07CC0F10125
:1008F00014A215A216A217A2148A158A168A178A9C
:1009000014AA15AA16AA17AAFFC0F10104A915A9CD
:1009100026A937A91C141D041E041F0404F5101673
:100920001106120613064CF46C157D058E059F0505
:100930005CF52281211157C027C001151105210541
:10094000310509F450C06C157D058E059F050CF02E
:100950004AC0F1018281882309F445C039C01016CC
:10096000110612061306FCF40027112798010C1932
:100970001D092E093F09601771078207930724F4A8
:10098000F1012281222379F19B01AC01882799276B
:10099000DC01821B930BA40BB50BF10184AB95AB6F
:1009A000A6ABB7AB20C00115110521053105D9F063
:1009B0008824992454018C189D08AE08BF08681536
:1009C00079058A059B057CF4F101828181110BC0B8
:1009D00030952095109501951F4F2F4F3F4F04AB39
:1009E00015AB26AB37ABF10184A895A8A6A8B7A88C
:1009F00081149104A104B10491F480AD91ADA2AD34
:100A0000B3AD84AF95AFA6AFB7AF81E01C141D04A2
:100A10001E041F040CF080E0F101828341C0F1014B
:100A2000C4ACD5ACE6ACF7ACA7019601C701B601E2
:100A30000E94690C2B013C01C501B4010E94140BFA
:100A400020E030E040E850E40E94730B20E030E00A
:100A500040E85FE30E94690C9B01AC01C301B20155
:100A60000E94D50C9B01AC01C701B6010E94680C25
:100A70007B018C01F101E05CFF4F60807180C280DE
:100A8000D3809301A6010E947D0D181614F0730106
:100A90008601A701B801F10144AF55AF66AF77AF4A
:100AA000FFEF8F1A9F0AAF0ABF0AF10184AA95AA25
:100AB000A6AAB7AA24AD35AD46AD57ADCA01B90156
:100AC00029833A834B835C830E944E0DF10164A31A
:100AD00075A386A397A329813A814B815C8160E04D
:100AE00074E284E799E40E94D50CF101648B758B64
:100AF000868B978B2281211107C0DC01CB01B05876
:100B0000848B958BA68BB78B0F900F900F900F90C7
:100B1000DF91CF911F910F91FF90EF90DF90CF90D9
:100B2000BF90AF909F908F907F906F905F904F900D
:100B30003F902F900895CF92DF92EF92FF92CF9344
:100B4000DF93EC0120E030E040E055E4688D798DE2
:100B50008A8D9B8D0E940D0B882309F443C080E091
:100B600090E0A0E0B5E4888F998FAA8FBB8F80E0DA
:100B700094E2A4EFB3E4FE01E05CFF4F8083918335
:100B8000A283B3838CA99DA9AEA9BFA91816190683
:100B90001A061B063CF56C897D898E899F899B010D
:100BA000AC010E94730B6B017C016C8D7D8D8E8D71
:100BB0009F8D9B01AC010E94690C9B01AC01C70198
:100BC000B6010E94D50C0E94470D6CAB7DAB8EAB7D
:100BD0009FABCE01DF91CF91FF90EF90DF90CF9050
:100BE0000C942D04DF91CF91FF90EF90DF90CF9088
:100BF0000895CF92DF92EF92FF92CF93DF93EC01B3
:100C00008CA19DA1AEA1BFA1892B8A2B8B2B09F4AE
:100C100059C03FB7F89480914F0190915001A09135
:100C20005101B091520126B5A89B05C02F3F19F084
:100C30000196A11DB11D3FBFCC24D82EE92EFA2E5E
:100C4000C20ED11CE11CF11C42E0CC0CDD1CEE1CE0
:100C5000FF1C4A95D1F788A599A5AAA5BBA5B70100
:100C6000A601481B590B6A0B7B0B8CA19DA1AEA161
:100C7000BFA1481759076A077B0720F12A818C8595
:100C80009D85AE85BF85222321F00196A11DB11D52
:100C900003C00197A109B1098C879D87AE87BF87E3
:100CA000E881F9814C855D856E857F850680F781B9
:100CB000E02DCE010995C8A6D9A6EAA6FBA6CE01CD
:100CC0000E942D0420E030E0A9016C897D898E8985
:100CD0009F890E940D0B811110C081E0C888D988BE
:100CE000EA88FB884C855D856E857F85C416D506B0
:100CF000E606F70619F480E001C081E0DF91CF91AC
:100D0000FF90EF90DF90CF9008950F931F93CF93B4
:100D1000DF93C4E6DAE088E591E00E941701892BB1
:100D200009F4DCC088E591E00E94F50080934E0153
:100D3000082E000C990BC0978A30910508F0C9C0A5
:100D400020914C0130914D01F901EE0FFF1FE65C3F
:100D5000FE4F91838083C901019690934D0180934A
:100D60004C010897C1F610924D0110924C018091F0
:100D70003A0190913B019093390180933801409161
:100D80003C0150913D014150510980913E019091AB
:100D90003F01C89F9001C99F300D1124609140010F
:100DA00070914101D69FC001D79F900D1124280F4B
:100DB000391F8091420190914301280F391F429FB2
:100DC000C001439F900D529F900D112490933701C5
:100DD0008093360160914401709145016150710921
:100DE0002091460130914701C29FA001C39F500D41
:100DF0001124E0914801F0914901DE9F9001DF9FAD
:100E0000300D1124240F351F40914A0150914B01A0
:100E1000240F351F629F8001639F100D729F100D7C
:100E200011241093350100933401092E000CAA0BF4
:100E3000BB0B40914B0250914C0260914D0270915E
:100E40004E02840F951FA61FB71F40914F0250916D
:100E500050026091510270915202481759076A0777
:100E60007B0761F080934F0290935002A093510250
:100E7000B09352028FE392E00E942D04C801110F3B
:100E8000AA0BBB0B40910702509108026091090226
:100E900070910A02840F951FA61FB71F40910B0285
:100EA00050910C0260910D0270910E024817590783
:100EB0006A077B0709F42FCF80930B0290930C02F3
:100EC000A0930D02B0930E028BEF91E00E942D04CF
:100ED00022CF10924D0110924C011DCFDF91CF9186
:100EE0001F910F9108950E94230181110C94850692
:100EF00008950E941B104F925F926F927F928F9283
:100F00009F92AF92BF92CF92DF92EF92FF92CF93D8
:100F1000DF93EC016A017B0120E030E0A901C70109
:100F2000B6010E940D0B87FF04C0F7FAF094F7F8A2
:100F3000F0948C8C9D8CAE8CBF8CA7019601C50162
:100F4000B4010E940D0B882309F449C06CA97DA946
:100F50008EA99FA90E94140B2B013C01A7019601A9
:100F6000C501B4010E94D50C9B01AC01C301B201C3
:100F70000E94730B0E94470D6CAB7DAB8EAB9FAB99
:100F8000A701960160E070E080E090E40E94D50C3B
:100F90000E94880D26E53EE04DE25FE30E94730B60
:100FA00020E034E244E759E40E94730B68AF79AF64
:100FB0008AAF9BAFCC8EDD8EEE8EFF8ECE01DF91A1
:100FC000CF91FF90EF90DF90CF90BF90AF909F9028
:100FD0008F907F906F905F904F900C942D04DF91D5
:100FE000CF91FF90EF90DF90CF90BF90AF909F9008
:100FF0008F907F906F905F904F9008951F920F9207
:101000000FB60F9211242F933F934F935F936F93DB
:101010007F938F939F93AF93BF93EF93FF9388E555
:1010200091E00E942D01FF91EF91BF91AF919F91AF
:101030008F917F916F915F914F913F912F910F9081
:101040000FBE0F901F9018951F920F920FB60F9220
:1010500011242F938F939F93EF93FF93E091680157
:10106000F09169018081E0916E01F0916F0182FD44
:1010700012C09081809171018F5F8F7320917201F6
:10108000821751F0E0917101F0E0E85AFE4F958F20
:101090008093710101C08081FF91EF919F918F91A9
:1010A0002F910F900FBE0F901F9018951F920F92C7
:1010B0000FB60F9211242F933F938F939F93AF936B
:1010C000BF938091540190915501A0915601B09128
:1010D00057013091530123E0230F2D3720F401965F
:1010E000A11DB11D05C026E8230F0296A11DB11D4B
:1010F000209353018093540190935501A09356017E
:10110000B093570180914F0190915001A0915101EE
:10111000B09152010196A11DB11D80934F01909392
:101120005001A0935101B0935201BF91AF919F9193
:101130008F913F912F910F900FBE0F901F90189598
:10114000AF92BF92CF92DF92EF92FF920F931F93D5
:10115000CF93DF9310925B0110925A0188EE93E0D7
:10116000A0E0B0E080935C0190935D01A0935E01EC
:10117000B0935F018AE091E0909359018093580108
:1011800085EC90E0909365018093640184EC90E09D
:10119000909367018093660180EC90E090936901E1
:1011A0008093680181EC90E090936B0180936A01D9
:1011B00082EC90E090936D0180936C0186EC90E05E
:1011C00090936F0180936E011092710110927201E1
:1011D00010927301109274018CE1A82E81E0B82E58
:1011E000B0924002A0923F02C8E0C0934202109227
:1011F0004B0210924C0210924D0210924E0210922D
:101200004F0210925002109251021092520210920C
:101210005302109254021092550210925602C12CA1
:10122000D12C90E8E92E9FE3F92EC0925702D0927C
:101230005802E0925902F0925A0210925B02109208
:101240005C0210925D0210925E02C0925F02D09228
:101250006002E0926102F0926202109263021092C8
:101260006402109265021092660201E010E0109391
:101270006C0200936B02DFEFD0936E021092670254
:10128000109268021092690210926A0283E08093C1
:10129000430285E08093440284E08093450286E027
:1012A000809346021092730210927402109275029B
:1012B00010927602109277021092780210927902C0
:1012C00010927A0210927B0210927C0210927D02A0
:1012D00010927E02C0927F02D0928002E092810240
:1012E000F09282021092410210924702109248023C
:1012F0001092490210924A028FE392E00E94030288
:10130000B701A6018FE392E00E947B07B092FC0137
:10131000A092FB01C093FE011092070210920802F6
:101320001092090210920A0210920B0210920C0203
:1013300010920D0210920E0210920F0210921002E3
:101340001092110210921202C0921302D092140253
:10135000E0921502F09216021092170210921802F3
:101360001092190210921A02C0921B02D0921C0213
:10137000E0921D02F0921E0210921F0210922002B3
:101380001092210210922202109328020093270249
:10139000D0932A0210922302109224021092250266
:1013A00010922602C093FF018AE08093000289E038
:1013B000809301028BE08093020210922F02109220
:1013C00030021092310210923202109233021092C7
:1013D00034021092350210923602109237021092A7
:1013E00038021092390210923A02C0923B02D09217
:1013F0003C02E0923D02F0923E021092FD011092FA
:1014000003021092040210920502109206028BEF62
:1014100091E00E940302B701A6018BEF91E00E94C8
:101420007B071092F6011092F5011092F8011092CC
:10143000F7011092FA011092F90161E070E080E08A
:1014400090E00E94510F009789F09093F6018093ED
:10145000F5011092F8011092F7012091F9013091F5
:10146000FA01232B11F5FC0110821FC08091F501B8
:101470009091F601009711F00E94B90E1092F601BA
:101480001092F5011092FA011092F9011092F801F0
:101490001092F701DF91CF911F910F91FF90EF9084
:1014A000DF90CF90BF90AF9008951092FA01109204
:1014B000F90162E371E0DF91CF911F910F91FF90ED
:1014C000EF90DF90CF90BF90AF900C94291078945C
:1014D00084B5826084BD84B5816084BD85B5826039
:1014E00085BD85B5816085BD80916E0081608093EA
:1014F0006E00109281008091810082608093810053
:101500008091810081608093810080918000816062
:10151000809380008091B10084608093B1008091BD
:10152000B00081608093B00080917A0084608093E5
:101530007A0080917A00826080937A0080917A00AC
:10154000816080937A0080917A00806880937A002D
:101550001092C100E0916801F091690182E08083FE
:10156000E0916801F09169011082E0916401F091CD
:1015700065011082E0916601F091670180E180834E
:1015800010927001E0916C01F0916D0186E0808312
:10159000E0916A01F0916B01808180618083E0912C
:1015A0006A01F0916B01808188608083E0916A011B
:1015B000F0916B01808180688083E0916A01F091F5
:1015C0006B0180818F7D80838FE392E00E949B0579
:1015D00040E050E060EC74E48FE392E00E947B070F
:1015E0008BEF91E00E949B0540E050E060EC74E4DA
:1015F0008BEF91E00E947B078FE392E00E94F90558
:101600008BEF91E00E94F9050E947307F5CF80915E
:10161000F5019091F6010C94B90E0E944F0B08F45D
:1016200081E00895E89409C097FB3EF49095809579
:10163000709561957F4F8F4F9F4F9923A9F0F92F98
:1016400096E9BB279395F695879577956795B79516
:10165000F111F8CFFAF4BB0F11F460FF1BC06F5FFC
:101660007F4F8F4F9F4F16C0882311F096E911C00E
:10167000772321F09EE8872F762F05C0662371F02F
:1016800096E8862F70E060E02AF09A95660F771F43
:10169000881FDAF7880F9695879597F90895990F1F
:1016A0000008550FAA0BE0E8FEEF16161706E8072C
:1016B000F907C0F012161306E407F50798F0621B4D
:1016C000730B840B950B39F40A2661F0232B242B22
:1016D000252B21F408950A2609F4A140A6958FEF41
:1016E000811D811D08950E94860B0C94F70B0E94AA
:1016F000E90B38F00E94F00B20F0952311F00C94C8
:10170000E00B0C94E60B11240C942B0C0E94080C9B
:1017100070F3959FC1F3950F50E0551F629FF00144
:10172000729FBB27F00DB11D639FAA27F00DB11D5D
:10173000AA1F649F6627B00DA11D661F829F2227E6
:10174000B00DA11D621F739FB00DA11D621F839F6D
:10175000A00D611D221F749F3327A00D611D231F43
:10176000849F600D211D822F762F6A2F11249F5791
:1017700050409AF0F1F088234AF0EE0FFF1FBB1F94
:10178000661F771F881F91505040A9F79E3F510553
:1017900080F00C94E00B0C942B0C5F3FE4F3983E2C
:1017A000D4F3869577956795B795F795E7959F5FFD
:1017B000C1F7FE2B880F911D9695879597F908958F
:1017C00097F99F6780E870E060E008959FEF80ECF4
:1017D000089500240A941616170618060906089597
:1017E00000240A9412161306140605060895092EFD
:1017F0000394000C11F4882352F0BB0F40F4BF2B6C
:1018000011F460FF04C06F5F7F4F8F4F9F4F0895AB
:1018100057FD9058440F551F59F05F3F71F04795A1
:10182000880F97FB991F61F09F3F79F08795089586
:10183000121613061406551FF2CF4695F1DF08C0A5
:10184000161617061806991FF1CF869571056105C2
:1018500008940895E894BB2766277727CB0197F96A
:1018600008952F923F924F925F926F927F928F9244
:101870009F92AF92BF92CF92DF92EF92FF920F931F
:101880001F93CF93DF93CDB7DEB7CA1BDB0B0FB629
:10189000F894DEBF0FBECDBF09942A8839884888E6
:1018A0005F846E847D848C849B84AA84B984C8847C
:1018B000DF80EE80FD800C811B81AA81B981CE0F73
:1018C000D11D0FB6F894DEBF0FBECDBFED01089558
:1018D0005058BB27AA270E94800C0C94F70B0E943B
:1018E000E90B38F00E94F00B20F039F49F3F19F417
:1018F00026F40C94E60B0EF4E095E7FB0C94E00B59
:10190000E92F0E94080C58F3BA176207730784077F
:10191000950720F079F4A6F50C942A0C0EF4E095C6
:101920000B2EBA2FA02D0B01B90190010C01CA0199
:10193000A0011124FF27591B99F0593F50F4503E44
:1019400068F11A16F040A22F232F342F4427585F36
:10195000F3CF469537952795A795F0405395C9F74E
:101960007EF41F16BA0B620B730B840BBAF0915006
:10197000A1F0FF0FBB1F661F771F881FC2F70EC0A5
:10198000BA0F621F731F841F48F487957795679578
:10199000B795F7959E3F08F0B0CF9395880F08F064
:1019A0009927EE0F9795879508950E94E90C0C945E
:1019B000F70B0E94F00B58F00E94E90B40F029F45D
:1019C0005F3F29F00C94E00B51110C942B0C0C94FC
:1019D000E60B0E94080C68F39923B1F3552391F3A9
:1019E000951B550BBB27AA2762177307840738F08E
:1019F0009F5F5F4F220F331F441FAA1FA9F335D0EB
:101A00000E2E3AF0E0E832D091505040E695001C9E
:101A1000CAF72BD0FE2F29D0660F771F881FBB1F58
:101A2000261737074807AB07B0E809F0BB0B802D36
:101A3000BF01FF2793585F4F3AF09E3F510578F062
:101A40000C94E00B0C942B0C5F3FE4F3983ED4F322
:101A5000869577956795B795F7959F5FC9F7880F36
:101A6000911D9695879597F90895E1E0660F771F88
:101A7000881FBB1F621773078407BA0720F0621B19
:101A8000730B840BBA0BEE1F88F7E09508950E9444
:101A90004E0D6894B1110C942B0C08950E94100CFB
:101AA00088F09F5798F0B92F9927B751B0F0E1F01F
:101AB000660F771F881F991F1AF0BA95C9F714C0CF
:101AC000B13091F00E942A0CB1E008950C942A0CD8
:101AD000672F782F8827B85F39F0B93FCCF3869508
:101AE00077956795B395D9F73EF490958095709565
:101AF00061957F4F8F4F9F4F08950E944F0B08F4C1
:101B00008FEF089519F416F40C94E60B0C94C80D9D
:101B10000E94100CB8F39923C9F3B6F39F57550BE5
:101B200087FF0E94D60D0024A0E640EA900180586D
:101B30005695979528F4805C660F771F881F20F0D4
:101B400026173707480730F4621B730B840B2029D4
:101B500031294A2BA69517940794202531254A2729
:101B600058F7660F771F881F20F02617370748079A
:101B700030F4620B730B840B200D311D411DA095B9
:101B800081F7B901842F9158880F9695879508950C
:101B90009F3F31F0915020F4879577956795B795E1
:101BA000880F911D9695879597F90895915050400B
:101BB000660F771F881FD2F70895052E97FB1EF436
:101BC00000940E94F40D57FD07D00E94020E07FCFE
:101BD00003D04EF40C94F40D50954095309521951A
:101BE0003F4F4F4F5F4F0895909580957095619549
:101BF0007F4F8F4F9F4F0895EE0FFF1F0590F49179
:101C0000E02D0994A1E21A2EAA1BBB1BFD010DC0F9
:101C1000AA1FBB1FEE1FFF1FA217B307E407F5079C
:101C200020F0A21BB30BE40BF50B661F771F881F78
:101C3000991F1A9469F760957095809590959B010E
:101C4000AC01BD01CF010895CF93DF9382309105A0
:101C500010F482E090E0E0918502F091860220E0AD
:101C600030E0C0E0D0E0309711F140815181481759
:101C70005907C0F04817590761F482819381209772
:101C800019F09B838A832BC09093860280938502F0
:101C900026C02115310519F04217530718F49A018F
:101CA000BE01DF01EF010280F381E02DDCCF2115C1
:101CB000310509F1281B390B2430310590F41296B7
:101CC0008D919C9113976115710521F0FB01938310
:101CD000828304C09093860280938502FD01329630
:101CE00044C0FD01E20FF31F81939193225031090B
:101CF0002D933C933AC02091830230918402232B90
:101D000041F4209102013091030130938402209329
:101D1000830220910001309101012115310541F428
:101D20002DB73EB74091040150910501241B350B9E
:101D3000E0918302F0918402E217F307A0F42E1BD6
:101D40003F0B2817390778F0AC014E5F5F4F24171F
:101D5000350748F04E0F5F1F509384024093830273
:101D60008193919302C0E0E0F0E0CF01DF91CF9149
:101D700008950F931F93CF93DF93009709F48CC0BE
:101D8000FC01329713821282009185021091860223
:101D90000115110581F420813181820F931F20915B
:101DA0008302309184022817390779F5F093840271
:101DB000E093830271C0D80140E050E0AE17BF0746
:101DC00050F412962D913C911397AD0121153105D8
:101DD00009F1D901F3CF9D01DA01338322836081B8
:101DE0007181860F971F8217930769F4EC01288190
:101DF0003981260F371F2E5F3F4F318320838A8121
:101E00009B8193838283452B29F4F0938602E09390
:101E1000850242C01396FC93EE931297ED0149910F
:101E200059919E01240F351FE217F30771F4808149
:101E30009181840F951F029611969C938E938281B7
:101E4000938113969C938E931297E0E0F0E0D80173
:101E500012968D919C911397009719F0F8018C01BF
:101E6000F6CF8D919C9198012E5F3F4F820F931F6B
:101E700020918302309184022817390769F4309742
:101E800029F4109286021092850202C013821282F7
:101E90001093840200938302DF91CF911F910F91E1
:101EA0000895A0E0B0E0E7E5FFE00C94350CEC010C
:101EB000009721F4CB010E94240EB8C0FC01E60F6C
:101EC000F71F9C0122503109E217F30708F4ACC058
:101ED000D9010D911C91119706171707B0F0053025
:101EE000110508F49FC0C80104978617970708F4E6
:101EF00099C002501109061B170B019311936D93A2
:101F00007C93CF010E94B90E8DC05B01A01AB10A6B
:101F10004C01800E911EA0918502B091860240E096
:101F200050E0E12CF12C109709F44AC0A815B9052E
:101F3000D1F56D907C901197630182E0C80ED11CA1
:101F4000CA14DB0480F1A3014A195B096A0182E02B
:101F5000C80ED11C1296BC9012971396AC91B5E0A6
:101F6000CB16D10440F0B282A38351834083D901C0
:101F70006D937C930AC00E5F1F4FC301800F911FAA
:101F8000F90191838083EB2DFA2FE114F10431F0F4
:101F9000D7011396FC93EE93129744C0F0938602F8
:101FA000E09385023FC08D919C9111974817590786
:101FB00008F4AC017D0112960D90BC91A02DB3CF19
:101FC000809183029091840288159905E1F4461767
:101FD0005707C8F48091000190910101009741F4E6
:101FE0008DB79EB74091040150910501841B950B5C
:101FF000E817F907C8F4F0938402E0938302F9012B
:10200000718360830FC0CB010E94240E7C01009776
:1020100059F0A801BE010E942010CE010E94B90E05
:10202000C70104C0CE0102C080E090E0CDB7DEB7AA
:10203000EEE00C94510C81E090E0F8940C94301098
:10204000FB01DC0102C001900D9241505040D8F7D5
:102050000895FB01DC0101900D920020E1F7089545
:1020600010E0CDE6D0E004C0FE010E94FC0D2196F8
:0A207000CE36D107C9F7F894FFCF70
:10207A00000087028000000000004E01B700E60061
:10208A0095011701F5000901000000003102030261
:10209A00AC03E80396035E033D030903E8029202D8
:0420AA004E020000E2
:00000001FF
