:100000000C946E000C9496000C9496000C94960040
:100010000C9496000C9496000C9496000C94960008
:100020000C9496000C9496000C9496000C949600F8
:100030000C9496000C9496000C9496000C949600E8
:100040000C9433080C9496000C9401080C94DB0774
:100050000C9496000C9496000C9496000C949600C8
:100060000C9496000C94960066026C027202780260
:100070007E0284028A02F703FE0305040C041304C3
:100080002A041A042A0421040000000800020100C6
:100090000003040700000000000000000000000052
:1000A000250028002B0000000000240027002A0063
:1000B000040404040404040402020202020203030E
:1000C0000303030301020408102040800102040816
:1000D00010200102040810207D08E40A11241FBE2C
:1000E000CFEFD8E0DEBFCDBF22E0A4E3B1E001C096
:1000F0001D92A937B207E1F711E0A0E0B1E0E4E317
:10010000F0E202C005900D92A433B107D9F710E0D8
:10011000CDE6D0E004C02197FE010E94D90DCC3677
:10012000D107C9F70E94440A0C940D100C940000EA
:1001300090E0FC01EC53FF4F2491FC01E055FF4F90
:100140008491882399F090E0880F991FFC01EA556B
:10015000FF4FA591B491FC01E456FF4F8591949116
:100160008FB7F894EC91E22BEC938FBF0895CF9268
:10017000DF92EF92FF920F931F93CF93DF936C0167
:100180007A018B01C0E0D0E0CE15DF0589F0D801FF
:100190006D918D01D601ED91FC910190F081E02DE2
:1001A000C6010995892B11F47E0102C02196ECCF7E
:1001B000C701DF91CF911F910F91FF90EF90DF90DA
:1001C000CF900895089580E090E00895FC01538D4C
:1001D000448D252F30E0842F90E0821B930B541721
:1001E00010F0CF96089501970895FC01918D828DAE
:1001F000981761F0828DDF01A80FB11D5D968C917B
:10020000928D9F5F9F73928F90E008958FEF9FEF85
:100210000895FC01918D828D981731F0828DE80F41
:10022000F11D858D90E008958FEF9FEF0895FC01FB
:10023000918D228D892F90E0805C9F4F821B9109C8
:100240008F73992708958AE491E00E94170121E0B5
:10025000892B09F420E0822F0895FC01848DDF01B1
:10026000A80FB11DA35ABF4F2C91848D90E0019629
:100270008F739927848FA689B7892C93A089B18918
:100280008C9180648C93938D848D981306C0028822
:10029000F389E02D80818F7D80830895EF92FF9216
:1002A0000F931F93CF93DF93EC0181E0888F9B8D99
:1002B0008C8D981305C0E889F989808185FD24C05B
:1002C000F62E0B8D10E00F5F1F4F0F731127E02EDE
:1002D0008C8DE8120CC00FB607FCFACFE889F989BB
:1002E000808185FFF5CFCE010E942D01F1CF8B8D4E
:1002F000FE01E80FF11DE35AFF4FF0820B8FEA89F0
:10030000FB898081806207C0EE89FF896083E8896C
:10031000F98980818064808381E090E0DF91CF91D2
:100320001F910F91FF90EF900895CF93DF93EC0111
:10033000888D8823C9F0EA89FB89808185FD05C005
:10034000A889B9898C9186FD0FC00FB607FCF5CF3F
:10035000808185FFF2CFA889B9898C9185FFEDCF87
:10036000CE010E942D01E7CFDF91CF91089590E05B
:10037000FC01E857FF4F3491FC01EC53FF4F2491EF
:10038000FC01E055FF4FE491EE2309F43BC0332319
:1003900039F1333091F038F43130A9F0323001F5D1
:1003A00084B58F7D12C0373091F03830A1F03430F1
:1003B000B9F4809180008F7D03C0809180008F7799
:1003C000809380000DC084B58F7784BD09C0809173
:1003D000B0008F7703C08091B0008F7D8093B00014
:1003E000F0E0EE0FFF1FE456FF4FA591B4918FB7D9
:1003F000F894EC91611103C020952E2301C02E2B9F
:100400002C938FBF0895CF93DF93FC012381222388
:1004100029F1EC0184810E9498008D810E9498004E
:100420008B81843011F0883029F48E810E949800ED
:100430008F8105C0833011F0863019F48E810E94BF
:1004400098008FA58F3F51F00E9498006EA581E023
:1004500068278FA5DF91CF910C94B701DF91CF91E1
:100460000895CF93DF93FC0123812223A1F0EC01B7
:100470000190F081E02D0480F581E02D60E0099588
:100480008FA58F3F41F00E9498006EA58FA5DF9148
:10049000CF910C94B701DF91CF910895CF93DF9363
:1004A0004770552766277727FA013197EC01A88115
:1004B000B981E730F10520F4EC5CFF4F0C94D90DC5
:1004C0001496ED91FC91159761E029C01496ED9179
:1004D000FC91159765E023C01496ED91FC9115975A
:1004E00064E01DC01496ED91FC91159766E017C06D
:1004F0001496ED91FC91159762E011C01496ED9160
:10050000FC9115976AE00BC01496ED91FC9115973C
:1005100068E005C01496ED91FC91159769E0DF91B4
:10052000CF910994CF93DF93EC01CB01BA0126E080
:1005300030E040E050E00E94BA0D62307105810564
:10054000910559F18CF46115710581059105F1F062
:100550006130710581059105C1F5E881F98104805B
:10056000F581E02D65E02DC06430710581059105B0
:1005700011F1D4F0653071058105910531F5E881FF
:10058000F9810480F581E02D66E01BC0E881F981E6
:100590000480F581E02D64E014C0E881F9810480D5
:1005A000F581E02D61E00DC0E881F9810480F581DD
:1005B000E02D63E006C0E881F9810480F581E02D3B
:1005C00062E0CE01DF91CF910994DF91CF91089540
:1005D0004370552766277727DC01ED91FC91048055
:1005E000F581E02D423051056105710571F0433010
:1005F00051056105710559F04130510561057105DD
:1006000011F065E005C066E003C06AE001C069E082
:100610000994CF93DF93EC01CB01BA0123E030E0E2
:1006200040E050E00E94BA0D6130710581059105EE
:1006300081F0623071058105910591F0672B682B7F
:10064000692BC1F4E881F9810480F581E02D64E033
:100650000DC0E881F9810480F581E02D61E006C0DC
:10066000E881F9810480F581E02D62E0CE01DF911F
:10067000CF910994DF91CF91089543705527662754
:100680007727DC01ED91FC910480F581E02D42306B
:1006900051056105710571F0433051056105710522
:1006A00059F0413051056105710511F062E005C056
:1006B00063E003C061E001C060E00994CF93DF9381
:1006C000EC01E881F9810480F581E02D8A818111B6
:1006D00002C060E001C062E0CE010995E881F981C5
:1006E0000480F581E02D8A81811102C061E001C0A2
:1006F00063E0CE0109958CA59DA58230910538F067
:10070000880F991F880F991F05970197F1F7E881C6
:10071000F9810480F581E02D8A81811102C060E0B9
:1007200001C062E0CE01DF91CF910994CF93DF93B6
:10073000EC0120E030E0A9016C897D898E899F89D8
:100740000E945A0D18161CF4E8A9F9A902C0EAA9DA
:10075000FBA9DF91CF910994CF92DF92EF92FF92A4
:100760000F931F93CF93DF93FC012381243041F03B
:10077000283031F0233031F0263021F012E003C070
:1007800014E001C013E0EC012896E12CF12CC62EF8
:10079000D12C01E0C6010E2C02C0959587950A94D4
:1007A000E2F7688180FD6027FE01349780810E9416
:1007B000B701FFEFEF1AFF0A2196E11658F3DF9118
:1007C000CF911F910F91FF90EF90DF90CF90089500
:1007D0000F931F93DC011396EC910E2F10E009305C
:1007E0001105C0F5F801E55CFF4F0C94D90DDC0153
:1007F000ED91FC910084F185E02D29C0DC01ED91A3
:10080000FC910284F385E02D22C0DC01ED91FC9186
:100810000484F585E02D1BC0DC01ED91FC9106847C
:10082000F785E02D14C0DC01ED91FC910088F18981
:10083000E02D0DC0DC01ED91FC910288F389E02DE3
:1008400006C0DC01ED91FC910488F589E02D1F9133
:100850000F9109941F910F9108952F923F924F92FB
:100860005F926F927F928F929F92AF92BF92CF9240
:10087000DF92EF92FF920F931F93CF93DF9300D0FD
:1008800000D0CDB7DEB71C01FC01C088D188E2885A
:10089000F38884859585A685B785C81AD90AEA0A9A
:1008A000FB0A64897589868997899B01AC010E943E
:1008B000500B4B015C01F101648D758D868D978D18
:1008C0009B01AC010E94460C9B01AC01C501B40127
:1008D0000E94B20C0E94240DC114D104E104F10461
:1008E000A1F462307105810591050CF07CC0F10125
:1008F00014A215A216A217A2148A158A168A178A9C
:1009000014AA15AA16AA17AAFFC0F10104A915A9CD
:1009100026A937A91C141D041E041F0404F5101673
:100920001106120613064CF46C157D058E059F0505
:100930005CF52281211157C027C001151105210541
:10094000310509F450C06C157D058E059F050CF02E
:100950004AC0F1018281882309F445C039C01016CC
:10096000110612061306FCF40027112798010C1932
:100970001D092E093F09601771078207930724F4A8
:10098000F1012281222379F19B01AC01882799276B
:10099000DC01821B930BA40BB50BF10184AB95AB6F
:1009A000A6ABB7AB20C00115110521053105D9F063
:1009B0008824992454018C189D08AE08BF08681536
:1009C00079058A059B057CF4F101828181110BC0B8
:1009D00030952095109501951F4F2F4F3F4F04AB39
:1009E00015AB26AB37ABF10184A895A8A6A8B7A88C
:1009F00081149104A104B10491F480AD91ADA2AD34
:100A0000B3AD84AF95AFA6AFB7AF81E01C141D04A2
:100A10001E041F040CF080E0F101828341C0F1014B
:100A2000C4ACD5ACE6ACF7ACA7019601C701B601E2
:100A30000E94460C2B013C01C501B4010E94F10A41
:100A400020E030E040E850E40E94500B20E030E02D
:100A500040E85FE30E94460C9B01AC01C301B20178
:100A60000E94B20C9B01AC01C701B6010E94450C6B
:100A70007B018C01F101E05CFF4F60807180C280DE
:100A8000D3809301A6010E945A0D181614F0730129
:100A90008601A701B801F10144AF55AF66AF77AF4A
:100AA000FFEF8F1A9F0AAF0ABF0AF10184AA95AA25
:100AB000A6AAB7AA24AD35AD46AD57ADCA01B90156
:100AC00029833A834B835C830E942B0DF10164A33D
:100AD00075A386A397A329813A814B815C8160E04D
:100AE00074E284E799E40E94B20CF101648B758B87
:100AF000868B978B2281211107C0DC01CB01B05876
:100B0000848B958BA68BB78B0F900F900F900F90C7
:100B1000DF91CF911F910F91FF90EF90DF90CF90D9
:100B2000BF90AF909F908F907F906F905F904F900D
:100B30003F902F900895CF92DF92EF92FF92CF9344
:100B4000DF93EC0120E030E040E854E4688D798DDB
:100B50008A8D9B8D0E94EA0A882309F443C080E0B5
:100B600090E0A0E8B4E4888F998FAA8FBB8F80E0D3
:100B700094E2A4E7B4E4FE01E05CFF4F808391833C
:100B8000A283B3838CA99DA9AEA9BFA91816190683
:100B90001A061B063CF56C897D898E899F899B010D
:100BA000AC010E94500B6B017C016C8D7D8D8E8D94
:100BB0009F8D9B01AC010E94460C9B01AC01C701BB
:100BC000B6010E94B20C0E94240D6CAB7DAB8EABC3
:100BD0009FABCE01DF91CF91FF90EF90DF90CF9050
:100BE0000C942D04DF91CF91FF90EF90DF90CF9088
:100BF0000895CF92DF92EF92FF92CF93DF93EC01B3
:100C00008CA19DA1AEA1BFA1892B8A2B8B2B09F4AE
:100C100059C03FB7F8948091410190914201A09151
:100C20004301B091440126B5A89B05C02F3F19F0A0
:100C30000196A11DB11D3FBFCC24D82EE92EFA2E5E
:100C4000C20ED11CE11CF11C42E0CC0CDD1CEE1CE0
:100C5000FF1C4A95D1F788A599A5AAA5BBA5B70100
:100C6000A601481B590B6A0B7B0B8CA19DA1AEA161
:100C7000BFA1481759076A077B0720F12A818C8595
:100C80009D85AE85BF85222321F00196A11DB11D52
:100C900003C00197A109B1098C879D87AE87BF87E3
:100CA000E881F9814C855D856E857F850680F781B9
:100CB000E02DCE010995C8A6D9A6EAA6FBA6CE01CD
:100CC0000E942D0420E030E0A9016C897D898E8985
:100CD0009F890E94EA0A811110C081E0C888D988E2
:100CE000EA88FB884C855D856E857F85C416D506B0
:100CF000E606F70619F480E001C081E0DF91CF91AC
:100D0000FF90EF90DF90CF9008956F927F928F9237
:100D10009F92AF92BF92CF92DF92EF92FF920F938A
:100D20001F93CF93DF9308EE13E054E6D52E6AE0CD
:100D3000C62E70EDE72E77E0F72E8AE491E00E9450
:100D40001701892B09F49DC08AE491E00E94F50007
:100D500080934001082E000C990BC0978A309105B2
:100D600008F08AC020913E0130913F01F901EE0F59
:100D7000FF1FEC5CFE4F91838083C9010196909325
:100D80003F0180933E010497C1F610923F011092FB
:100D90003E016090340170903501609E5001619E6B
:100DA000B00C709EB00C11242091360130913701A7
:100DB000D29EC001D39E900D1124A80EB91E809121
:100DC000380190913901C89E4001C99E900C1124B0
:100DD000C0913A01D0913B01C501880D991D8C0F3E
:100DE0009D1F092E000CAA0BBB0B40914102509194
:100DF00042026091430270914402481759076A0702
:100E00007B0761F08093410290934202A0934302DA
:100E1000B093440281E392E00E942D046E9CC001D5
:100E20006F9C900D7E9C900D11249501281B390B11
:100E3000C901880D991D8C0F9D1F092E000CAA0B4E
:100E4000BB0B4091FD015091FE016091FF0170913B
:100E50000002481759076A077B0709F46ECF809391
:100E6000FD019093FE01A093FF01B09300028DEE6F
:100E700091E00E942D0461CF10923F0110923E013B
:100E80005CCFDF91CF911F910F91FF90EF90DF909A
:100E9000CF90BF90AF909F908F907F906F9008956C
:100EA0000E94230181110C94850608950E94F80F79
:100EB0004F925F926F927F928F929F92AF92BF926A
:100EC000CF92DF92EF92FF92CF93DF93EC016A0112
:100ED0007B0120E030E0A901C701B6010E94EA0AC7
:100EE00087FF04C0F7FAF094F7F8F0948C8C9D8C8F
:100EF000AE8CBF8CA7019601C501B4010E94EA0A1D
:100F0000882309F449C06CA97DA98EA99FA90E94D4
:100F1000F10A2B013C01A7019601C501B4010E9411
:100F2000B20C9B01AC01C301B2010E94500B0E94A4
:100F3000240D6CAB7DAB8EAB9FABA701960160E03F
:100F400070E080E090E40E94B20C0E94650D26E5FE
:100F50003EE04DE25FE30E94500B20E034E244E7C4
:100F600059E40E94500B68AF79AF8AAF9BAFCC8E2B
:100F7000DD8EEE8EFF8ECE01DF91CF91FF90EF9050
:100F8000DF90CF90BF90AF909F908F907F906F90A9
:100F90005F904F900C942D04DF91CF91FF90EF90D4
:100FA000DF90CF90BF90AF909F908F907F906F9089
:100FB0005F904F9008951F920F920FB60F921124D9
:100FC0002F933F934F935F936F937F938F939F9351
:100FD000AF93BF93EF93FF938AE491E00E942D01BA
:100FE000FF91EF91BF91AF919F918F917F916F9101
:100FF0005F914F913F912F910F900FBE0F901F90D7
:1010000018951F920F920FB60F9211242F938F9362
:101010009F93EF93FF93E0915A01F0915B018081E0
:10102000E0916001F091610182FD12C09081809198
:1010300063018F5F8F7320916401821751F0E091FB
:101040006301F0E0E65BFE4F958F8093630101C082
:101050008081FF91EF919F918F912F910F900FBE03
:101060000F901F9018951F920F920FB60F92112498
:101070002F933F938F939F93AF93BF93809146019C
:1010800090914701A0914801B091490130914501EB
:1010900023E0230F2D3720F40196A11DB11D05C0BB
:1010A00026E8230F0296A11DB11D209345018093D0
:1010B000460190934701A0934801B0934901809164
:1010C000410190914201A0914301B09144010196E8
:1010D000A11DB11D8093410190934201A093430152
:1010E000B0934401BF91AF919F918F913F912F9108
:1010F0000F900FBE0F901F901895AF92BF92CF9296
:10110000DF92EF92FF920F931F93CF93DF93109292
:101110004D0110924C0188EE93E0A0E0B0E0809386
:101120004E0190934F01A0935001B09351018AE07A
:1011300091E090934B0180934A0185EC90E090936D
:1011400057018093560184EC90E09093590180936D
:10115000580180EC90E090935B0180935A0181EC00
:1011600090E090935D0180935C0182EC90E090931D
:101170005F0180935E0186EC90E090936101809323
:101180006001109263011092640110926501109247
:1011900066018CE1A82E81E0B82EB0923202A092B6
:1011A0003102C8E0C093340210923D0210923E0218
:1011B00010923F021092400210924102109242029D
:1011C000109243021092440210924502109246027D
:1011D0001092470210924802C12CD12C90E8E92EBF
:1011E0009FE3F92EC0924902D0924A02E0924B024C
:1011F000F0924C0210924D0210924E0210924F0249
:1012000010925002C0925102D0925202E0925302C8
:10121000F092540210925502109256021092570208
:101220001092580201E010E010935E0200935D02FC
:10123000DFEFD09360021092590210925A0210927E
:101240005B0210925C0283E08093350285E080931C
:10125000360284E08093370286E080933802109251
:101260006502109266021092670210926802109254
:10127000690210926A0210926B0210926C02109234
:101280006D0210926E0210926F0210927002C09264
:101290007102D0927202E0927302F0927402109284
:1012A00033021092390210923A0210923B021092CD
:1012B0003C0281E392E00E940302B701A60181E3B0
:1012C00092E00E945807B092EE01A092ED01C09307
:1012D000F0011092F9011092FA011092FB011092A4
:1012E000FC011092FD011092FE011092FF0110927C
:1012F0000002109201021092020210920302109258
:101300000402C0920502D0920602E0920702F09217
:1013100008021092090210920A0210920B02109217
:101320000C02C0920D02D0920E02E0920F02F092D7
:1013300010021092110210921202109213021092D7
:10134000140210931A0200931902D0931C021092F7
:101350001502109216021092170210921802C093F2
:10136000F1018AE08093F20189E08093F3018BE040
:101370008093F40110922102109222021092230213
:101380001092240210922502109226021092270237
:10139000109228021092290210922A0210922B0217
:1013A00010922C02C0922D02D0922E02E0922F02B7
:1013B000F09230021092EF011092F5011092F601B6
:1013C0001092F7011092F8018DEE91E00E94030255
:1013D000B701A6018DEE91E00E9458071092E80136
:1013E0001092E7011092EA011092E9011092EC01CB
:1013F0001092EB0161E070E080E090E00E942E0F1F
:10140000009789F09093E8018093E7011092EA0138
:101410001092E9012091EB013091EC01232B11F5A1
:10142000FC0110821FC08091E7019091E8010097B4
:1014300011F00E94960E1092E8011092E7011092AE
:10144000EC011092EB011092EA011092E901DF9198
:10145000CF911F910F91FF90EF90DF90CF90BF90B1
:10146000AF9008951092EC011092EB0162E371E0ED
:10147000DF91CF911F910F91FF90EF90DF90CF9070
:10148000BF90AF900C940610789484B5826084BDB0
:1014900084B5816084BD85B5826085BD85B5816078
:1014A00085BD80916E00816080936E0010928100F6
:1014B00080918100826080938100809181008160B1
:1014C0008093810080918000816080938000809172
:1014D000B10084608093B1008091B00081608093FE
:1014E000B00080917A00846080937A0080917A00C5
:1014F000826080937A0080917A00816080937A0084
:1015000080917A00806880937A001092C100E09107
:101510005A01F0915B0182E08083E0915A01F091E1
:101520005B011082E0915601F09157011082E09129
:101530005801F091590180E1808310926201E0919D
:101540005E01F0915F0186E08083E0915C01F091A3
:101550005D01808180618083E0915C01F0915D019B
:10156000808188608083E0915C01F0915D018081E1
:1015700080688083E0915C01F0915D0180818F7DC6
:10158000808381E392E00E949B0540E050E060E8A8
:1015900074E481E392E00E9458078DEE91E00E948E
:1015A0009B0540E050E060E874E48DEE91E00E941D
:1015B000580781E392E00E94F9058DEE91E00E94C8
:1015C000F9050E945007F5CF8091E7019091E8015D
:1015D0000C94960E0E942C0B08F481E00895E89478
:1015E00009C097FB3EF490958095709561957F4F6B
:1015F0008F4F9F4F9923A9F0F92F96E9BB27939519
:10160000F695879577956795B795F111F8CFFAF428
:10161000BB0F11F460FF1BC06F5F7F4F8F4F9F4F59
:1016200016C0882311F096E911C0772321F09EE8B7
:10163000872F762F05C0662371F096E8862F70E01D
:1016400060E02AF09A95660F771F881FDAF7880FF7
:101650009695879597F90895990F0008550FAA0B4D
:10166000E0E8FEEF16161706E807F907C0F01216B5
:101670001306E407F50798F0621B730B840B950BB8
:1016800039F40A2661F0232B242B252B21F408950D
:101690000A2609F4A140A6958FEF811D811D0895AA
:1016A0000E94630B0C94D40B0E94C60B38F00E946E
:1016B000CD0B20F0952311F00C94BD0B0C94C30BB3
:1016C00011240C94080C0E94E50B70F3959FC1F354
:1016D000950F50E0551F629FF001729FBB27F00DE0
:1016E000B11D639FAA27F00DB11DAA1F649F662735
:1016F000B00DA11D661F829F2227B00DA11D621F84
:10170000739FB00DA11D621F839FA00D611D221F3D
:10171000749F3327A00D611D231F849F600D211D21
:10172000822F762F6A2F11249F5750409AF0F1F0A4
:1017300088234AF0EE0FFF1FBB1F661F771F881F0D
:1017400091505040A9F79E3F510580F00C94BD0B7D
:101750000C94080C5F3FE4F3983ED4F3869577959C
:101760006795B795F795E7959F5FC1F7FE2B880FB3
:10177000911D9695879597F9089597F99F6780E849
:1017800070E060E008959FEF80EC089500240A94D3
:101790001616170618060906089500240A9412164C
:1017A0001306140605060895092E0394000C11F47F
:1017B000882352F0BB0F40F4BF2B11F460FF04C02C
:1017C0006F5F7F4F8F4F9F4F089557FD9058440F85
:1017D000551F59F05F3F71F04795880F97FB991F90
:1017E00061F09F3F79F0879508951216130614064D
:1017F000551FF2CF4695F1DF08C0161617061806DA
:10180000991FF1CF86957105610508940895E894B4
:10181000BB2766277727CB0197F908952F923F9230
:101820004F925F926F927F928F929F92AF92BF92F0
:10183000CF92DF92EF92FF920F931F93CF93DF939C
:10184000CDB7DEB7CA1BDB0B0FB6F894DEBF0FBEF9
:10185000CDBF09942A88398848885F846E847D8446
:101860008C849B84AA84B984C884DF80EE80FD8048
:101870000C811B81AA81B981CE0FD11D0FB6F894BE
:10188000DEBF0FBECDBFED0108955058BB27AA277C
:101890000E945D0C0C94D40B0E94C60B38F00E9481
:1018A000CD0B20F039F49F3F19F426F40C94C30BB0
:1018B0000EF4E095E7FB0C94BD0BE92F0E94E50BBD
:1018C00058F3BA17620773078407950720F079F475
:1018D000A6F50C94070C0EF4E0950B2EBA2FA02D54
:1018E0000B01B90190010C01CA01A0011124FF27CD
:1018F000591B99F0593F50F4503E68F11A16F040C8
:10190000A22F232F342F4427585FF3CF46953795C6
:101910002795A795F0405395C9F77EF41F16BA0B8B
:10192000620B730B840BBAF09150A1F0FF0FBB1F39
:10193000661F771F881FC2F70EC0BA0F621F731F82
:10194000841F48F4879577956795B795F7959E3FDF
:1019500008F0B0CF9395880F08F09927EE0F979570
:10196000879508950E94C60C0C94D40B0E94CD0B51
:1019700058F00E94C60B40F029F45F3F29F00C9408
:10198000BD0B51110C94080C0C94C30B0E94E50B79
:1019900068F39923B1F3552391F3951B550BBB279E
:1019A000AA2762177307840738F09F5F5F4F220FE3
:1019B000331F441FAA1FA9F335D00E2E3AF0E0E8DA
:1019C00032D091505040E695001CCAF72BD0FE2F24
:1019D00029D0660F771F881FBB1F261737074807B8
:1019E000AB07B0E809F0BB0B802DBF01FF27935870
:1019F0005F4F3AF09E3F510578F00C94BD0B0C946C
:101A0000080C5F3FE4F3983ED4F38695779567958D
:101A1000B795F7959F5FC9F7880F911D96958795A4
:101A200097F90895E1E0660F771F881FBB1F6217C3
:101A300073078407BA0720F0621B730B840BBA0B81
:101A4000EE1F88F7E09508950E942B0D6894B11160
:101A50000C94080C08950E94ED0B88F09F5798F0A5
:101A6000B92F9927B751B0F0E1F0660F771F881FA3
:101A7000991F1AF0BA95C9F714C0B13091F00E94BD
:101A8000070CB1E008950C94070C672F782F882776
:101A9000B85F39F0B93FCCF3869577956795B395E4
:101AA000D9F73EF490958095709561957F4F8F4F53
:101AB0009F4F08950E942C0B08F48FEF089519F49E
:101AC00016F40C94C30B0C94A50D0E94ED0BB8F307
:101AD0009923C9F3B6F39F57550B87FF0E94B30DA7
:101AE0000024A0E640EA900180585695979528F486
:101AF000805C660F771F881F20F02617370748077E
:101B000030F4621B730B840B202931294A2BA695D4
:101B100017940794202531254A2758F7660F771F19
:101B2000881F20F026173707480730F4620B730B25
:101B3000840B200D311D411DA09581F7B901842F23
:101B40009158880F9695879508959F3F31F0915051
:101B500020F4879577956795B795880F911D969591
:101B6000879597F9089591505040660F771F881F09
:101B7000D2F70895052E97FB1EF400940E94D10D14
:101B800057FD07D00E94DF0D07FC03D04EF40C94E4
:101B9000D10D50954095309521953F4F4F4F5F4F58
:101BA000089590958095709561957F4F8F4F9F4FC9
:101BB0000895EE0FFF1F0590F491E02D0994A1E226
:101BC0001A2EAA1BBB1BFD010DC0AA1FBB1FEE1FB7
:101BD000FF1FA217B307E407F50720F0A21BB30B02
:101BE000E40BF50B661F771F881F991F1A9469F77E
:101BF00060957095809590959B01AC01BD01CF01DA
:101C00000895CF93DF938230910510F482E090E045
:101C1000E0917702F091780220E030E0C0E0D0E07F
:101C2000309711F14081518148175907C0F048178A
:101C3000590761F482819381209719F09B838A83ED
:101C40002BC0909378028093770226C0211531052E
:101C500019F04217530718F49A01BE01DF01EF0192
:101C60000280F381E02DDCCF2115310509F1281B1D
:101C7000390B2430310590F412968D919C91139775
:101C80006115710521F0FB019383828304C0909359
:101C9000780280937702FD01329644C0FD01E20F85
:101CA000F31F81939193225031092D933C933AC0B5
:101CB0002091750230917602232B41F4209102018C
:101CC0003091030130937602209375022091000138
:101CD000309101012115310541F42DB73EB74091F6
:101CE000040150910501241B350BE0917502F09120
:101CF0007602E217F307A0F42E1B3F0B28173907D3
:101D000078F0AC014E5F5F4F2417350748F04E0F57
:101D10005F1F50937602409375028193919302C0A6
:101D2000E0E0F0E0CF01DF91CF9108950F931F9392
:101D3000CF93DF93009709F48CC0FC013297138294
:101D4000128200917702109178020115110581F439
:101D500020813181820F931F20917502309176028C
:101D60002817390779F5F0937602E093750271C070
:101D7000D80140E050E0AE17BF0750F412962D9105
:101D80003C911397AD012115310509F1D901F3CF2C
:101D90009D01DA013383228360817181860F971F51
:101DA0008217930769F4EC0128813981260F371FC8
:101DB0002E5F3F4F318320838A819B81938382836F
:101DC000452B29F4F0937802E093770242C01396F2
:101DD000FC93EE931297ED01499159919E01240FC6
:101DE000351FE217F30771F480819181840F951FED
:101DF000029611969C938E938281938113969C9365
:101E00008E931297E0E0F0E0D80112968D919C91AC
:101E10001397009719F0F8018C01F6CF8D919C91E2
:101E200098012E5F3F4F820F931F209175023091D2
:101E300076022817390769F4309729F4109278024E
:101E40001092770202C013821282109376020093DE
:101E50007502DF91CF911F910F910895A0E0B0E03E
:101E6000E4E3FFE00C94120CEC01009721F4CB01A9
:101E70000E94010EB8C0FC01E60FF71F9C01225022
:101E80003109E217F30708F4ACC0D9010D911C9198
:101E9000119706171707B0F00530110508F49FC019
:101EA000C80104978617970708F499C002501109D2
:101EB000061B170B019311936D937C93CF010E9426
:101EC000960E8DC05B01A01AB10A4C01800E911EC6
:101ED000A0917702B091780240E050E0E12CF12C23
:101EE000109709F44AC0A815B905D1F56D907C90FA
:101EF0001197630182E0C80ED11CCA14DB0480F183
:101F0000A3014A195B096A0182E0C80ED11C12962E
:101F1000BC9012971396AC91B5E0CB16D10440F06B
:101F2000B282A38351834083D9016D937C930AC00D
:101F30000E5F1F4FC301800F911FF90191838083B2
:101F4000EB2DFA2FE114F10431F0D7011396FC9335
:101F5000EE93129744C0F0937802E09377023FC06B
:101F60008D919C9111974817590708F4AC017D0198
:101F700012960D90BC91A02DB3CF809175029091D7
:101F8000760288159905E1F446175707C8F4809141
:101F9000000190910101009741F48DB79EB74091E7
:101FA000040150910501841B950BE817F907C8F44B
:101FB000F0937602E0937502F901718360830FC09C
:101FC000CB010E94010E7C01009759F0A801BE01CF
:101FD0000E94FD0FCE010E94960EC70104C0CE01E3
:101FE00002C080E090E0CDB7DEB7EEE00C942E0C9E
:101FF00081E090E0F8940C940D10FB01DC0102C02C
:1020000001900D9241505040D8F70895FB01DC013A
:1020100001900D920020E1F7089510E0CDE6D0E0A8
:1020200004C0FE010E94D90D2196CE36D107C9F712
:04203000F894FFCF52
:10203400000079028000000000004E01B700E600B5
:1020440095011701F50009010000000031020302A7
:10205400AC03E80396035E033D030903E80292021E
:042064004E02000028
:107E0000112484B714BE81FFF0D085E080938100F7
:107E100082E08093C00088E18093C10086E0809377
:107E2000C20080E18093C4008EE0C9D0259A86E02C
:107E300020E33CEF91E0309385002093840096BBD3
:107E4000B09BFECF1D9AA8958150A9F7CC24DD24C4
:107E500088248394B5E0AB2EA1E19A2EF3E0BF2EE7
:107E6000A2D0813461F49FD0082FAFD0023811F036
:107E7000013811F484E001C083E08DD089C08234E0
:107E800011F484E103C0853419F485E0A6D080C0E4
:107E9000853579F488D0E82EFF2485D0082F10E0AE
:107EA000102F00270E291F29000F111F8ED06801E7
:107EB0006FC0863521F484E090D080E0DECF843638
:107EC00009F040C070D06FD0082F6DD080E0C81688
:107ED00080E7D80618F4F601B7BEE895C0E0D1E017
:107EE00062D089930C17E1F7F0E0CF16F0E7DF06D8
:107EF00018F0F601B7BEE89568D007B600FCFDCFD4
:107F0000A601A0E0B1E02C9130E011968C91119780
:107F100090E0982F8827822B932B1296FA010C0160
:107F200087BEE89511244E5F5F4FF1E0A038BF0790
:107F300051F7F601A7BEE89507B600FCFDCF97BE46
:107F4000E89526C08437B1F42ED02DD0F82E2BD052
:107F50003CD0F601EF2C8F010F5F1F4F84911BD097
:107F6000EA94F801C1F70894C11CD11CFA94CF0C13
:107F7000D11C0EC0853739F428D08EE10CD085E9AC
:107F80000AD08FE07ACF813511F488E018D01DD067
:107F900080E101D065CF982F8091C00085FFFCCF94
:107FA0009093C60008958091C00087FFFCCF809118
:107FB000C00084FD01C0A8958091C6000895E0E648
:107FC000F0E098E1908380830895EDDF803219F02E
:107FD00088E0F5DFFFCF84E1DECF1F93182FE3DFCA
:107FE0001150E9F7F2DF1F91089580E0E8DFEE27F6
:047FF000FF270994CA
:027FFE00040479
:0400000300007E007B
:00000001FF
